{
  "contractName": "MyNFT",
  "abi": [
    {
      "inputs": [],
      "stateMutability": "nonpayable",
      "type": "constructor"
    },
    {
      "anonymous": false,
      "inputs": [
        {
          "indexed": true,
          "internalType": "address",
          "name": "owner",
          "type": "address"
        },
        {
          "indexed": true,
          "internalType": "address",
          "name": "approved",
          "type": "address"
        },
        {
          "indexed": true,
          "internalType": "uint256",
          "name": "tokenId",
          "type": "uint256"
        }
      ],
      "name": "Approval",
      "type": "event"
    },
    {
      "anonymous": false,
      "inputs": [
        {
          "indexed": true,
          "internalType": "address",
          "name": "owner",
          "type": "address"
        },
        {
          "indexed": true,
          "internalType": "address",
          "name": "operator",
          "type": "address"
        },
        {
          "indexed": false,
          "internalType": "bool",
          "name": "approved",
          "type": "bool"
        }
      ],
      "name": "ApprovalForAll",
      "type": "event"
    },
    {
      "anonymous": false,
      "inputs": [
        {
          "indexed": false,
          "internalType": "uint256",
          "name": "_fromTokenId",
          "type": "uint256"
        },
        {
          "indexed": false,
          "internalType": "uint256",
          "name": "_toTokenId",
          "type": "uint256"
        }
      ],
      "name": "BatchMetadataUpdate",
      "type": "event"
    },
    {
      "anonymous": false,
      "inputs": [
        {
          "indexed": false,
          "internalType": "uint256",
          "name": "_tokenId",
          "type": "uint256"
        }
      ],
      "name": "MetadataUpdate",
      "type": "event"
    },
    {
      "anonymous": false,
      "inputs": [
        {
          "indexed": true,
          "internalType": "address",
          "name": "previousOwner",
          "type": "address"
        },
        {
          "indexed": true,
          "internalType": "address",
          "name": "newOwner",
          "type": "address"
        }
      ],
      "name": "OwnershipTransferred",
      "type": "event"
    },
    {
      "anonymous": false,
      "inputs": [
        {
          "indexed": true,
          "internalType": "address",
          "name": "from",
          "type": "address"
        },
        {
          "indexed": true,
          "internalType": "address",
          "name": "to",
          "type": "address"
        },
        {
          "indexed": true,
          "internalType": "uint256",
          "name": "tokenId",
          "type": "uint256"
        }
      ],
      "name": "Transfer",
      "type": "event"
    },
    {
      "inputs": [
        {
          "internalType": "address",
          "name": "to",
          "type": "address"
        },
        {
          "internalType": "uint256",
          "name": "tokenId",
          "type": "uint256"
        }
      ],
      "name": "approve",
      "outputs": [],
      "stateMutability": "nonpayable",
      "type": "function"
    },
    {
      "inputs": [
        {
          "internalType": "address",
          "name": "owner",
          "type": "address"
        }
      ],
      "name": "balanceOf",
      "outputs": [
        {
          "internalType": "uint256",
          "name": "",
          "type": "uint256"
        }
      ],
      "stateMutability": "view",
      "type": "function",
      "constant": true
    },
    {
      "inputs": [
        {
          "internalType": "uint256",
          "name": "tokenId",
          "type": "uint256"
        }
      ],
      "name": "getApproved",
      "outputs": [
        {
          "internalType": "address",
          "name": "",
          "type": "address"
        }
      ],
      "stateMutability": "view",
      "type": "function",
      "constant": true
    },
    {
      "inputs": [
        {
          "internalType": "address",
          "name": "owner",
          "type": "address"
        },
        {
          "internalType": "address",
          "name": "operator",
          "type": "address"
        }
      ],
      "name": "isApprovedForAll",
      "outputs": [
        {
          "internalType": "bool",
          "name": "",
          "type": "bool"
        }
      ],
      "stateMutability": "view",
      "type": "function",
      "constant": true
    },
    {
      "inputs": [],
      "name": "name",
      "outputs": [
        {
          "internalType": "string",
          "name": "",
          "type": "string"
        }
      ],
      "stateMutability": "view",
      "type": "function",
      "constant": true
    },
    {
      "inputs": [],
      "name": "owner",
      "outputs": [
        {
          "internalType": "address",
          "name": "",
          "type": "address"
        }
      ],
      "stateMutability": "view",
      "type": "function",
      "constant": true
    },
    {
      "inputs": [
        {
          "internalType": "uint256",
          "name": "tokenId",
          "type": "uint256"
        }
      ],
      "name": "ownerOf",
      "outputs": [
        {
          "internalType": "address",
          "name": "",
          "type": "address"
        }
      ],
      "stateMutability": "view",
      "type": "function",
      "constant": true
    },
    {
      "inputs": [],
      "name": "renounceOwnership",
      "outputs": [],
      "stateMutability": "nonpayable",
      "type": "function"
    },
    {
      "inputs": [
        {
          "internalType": "address",
          "name": "from",
          "type": "address"
        },
        {
          "internalType": "address",
          "name": "to",
          "type": "address"
        },
        {
          "internalType": "uint256",
          "name": "tokenId",
          "type": "uint256"
        }
      ],
      "name": "safeTransferFrom",
      "outputs": [],
      "stateMutability": "nonpayable",
      "type": "function"
    },
    {
      "inputs": [
        {
          "internalType": "address",
          "name": "from",
          "type": "address"
        },
        {
          "internalType": "address",
          "name": "to",
          "type": "address"
        },
        {
          "internalType": "uint256",
          "name": "tokenId",
          "type": "uint256"
        },
        {
          "internalType": "bytes",
          "name": "data",
          "type": "bytes"
        }
      ],
      "name": "safeTransferFrom",
      "outputs": [],
      "stateMutability": "nonpayable",
      "type": "function"
    },
    {
      "inputs": [
        {
          "internalType": "address",
          "name": "operator",
          "type": "address"
        },
        {
          "internalType": "bool",
          "name": "approved",
          "type": "bool"
        }
      ],
      "name": "setApprovalForAll",
      "outputs": [],
      "stateMutability": "nonpayable",
      "type": "function"
    },
    {
      "inputs": [
        {
          "internalType": "bytes4",
          "name": "interfaceId",
          "type": "bytes4"
        }
      ],
      "name": "supportsInterface",
      "outputs": [
        {
          "internalType": "bool",
          "name": "",
          "type": "bool"
        }
      ],
      "stateMutability": "view",
      "type": "function",
      "constant": true
    },
    {
      "inputs": [],
      "name": "symbol",
      "outputs": [
        {
          "internalType": "string",
          "name": "",
          "type": "string"
        }
      ],
      "stateMutability": "view",
      "type": "function",
      "constant": true
    },
    {
      "inputs": [
        {
          "internalType": "uint256",
          "name": "tokenId",
          "type": "uint256"
        }
      ],
      "name": "tokenURI",
      "outputs": [
        {
          "internalType": "string",
          "name": "",
          "type": "string"
        }
      ],
      "stateMutability": "view",
      "type": "function",
      "constant": true
    },
    {
      "inputs": [
        {
          "internalType": "address",
          "name": "from",
          "type": "address"
        },
        {
          "internalType": "address",
          "name": "to",
          "type": "address"
        },
        {
          "internalType": "uint256",
          "name": "tokenId",
          "type": "uint256"
        }
      ],
      "name": "transferFrom",
      "outputs": [],
      "stateMutability": "nonpayable",
      "type": "function"
    },
    {
      "inputs": [
        {
          "internalType": "address",
          "name": "newOwner",
          "type": "address"
        }
      ],
      "name": "transferOwnership",
      "outputs": [],
      "stateMutability": "nonpayable",
      "type": "function"
    },
    {
      "inputs": [
        {
          "internalType": "address",
          "name": "recipient",
          "type": "address"
        },
        {
          "internalType": "string",
          "name": "tokenURI",
          "type": "string"
        }
      ],
      "name": "mintNFT",
      "outputs": [
        {
          "internalType": "uint256",
          "name": "",
          "type": "uint256"
        }
      ],
      "stateMutability": "nonpayable",
      "type": "function"
    },
    {
      "inputs": [],
      "name": "withdrawETH",
      "outputs": [],
      "stateMutability": "nonpayable",
      "type": "function"
    },
    {
      "inputs": [
        {
          "internalType": "address",
          "name": "user",
          "type": "address"
        }
      ],
      "name": "getMintedToken",
      "outputs": [
        {
          "internalType": "string",
          "name": "",
          "type": "string"
        }
      ],
      "stateMutability": "view",
      "type": "function",
      "constant": true
    }
  ],
  "bytecode": "0x60806040523480156200001157600080fd5b506040518060400160405280600581526020017f4d794e46540000000000000000000000000000000000000000000000000000008152506040518060400160405280600381526020017f4e4654000000000000000000000000000000000000000000000000000000000081525081600090816200008f919062000412565b508060019081620000a1919062000412565b505050620000c4620000b8620000ca60201b60201c565b620000d260201b60201c565b620004f9565b600033905090565b6000600760009054906101000a900473ffffffffffffffffffffffffffffffffffffffff16905081600760006101000a81548173ffffffffffffffffffffffffffffffffffffffff021916908373ffffffffffffffffffffffffffffffffffffffff1602179055508173ffffffffffffffffffffffffffffffffffffffff168173ffffffffffffffffffffffffffffffffffffffff167f8be0079c531659141344cd1fd0a4f28419497f9722a3daafe3b4186f6b6457e060405160405180910390a35050565b600081519050919050565b7f4e487b7100000000000000000000000000000000000000000000000000000000600052604160045260246000fd5b7f4e487b7100000000000000000000000000000000000000000000000000000000600052602260045260246000fd5b600060028204905060018216806200021a57607f821691505b60208210810362000230576200022f620001d2565b5b50919050565b60008190508160005260206000209050919050565b60006020601f8301049050919050565b600082821b905092915050565b6000600883026200029a7fffffffffffffffffffffffffffffffffffffffffffffffffffffffffffffffff826200025b565b620002a686836200025b565b95508019841693508086168417925050509392505050565b6000819050919050565b6000819050919050565b6000620002f3620002ed620002e784620002be565b620002c8565b620002be565b9050919050565b6000819050919050565b6200030f83620002d2565b620003276200031e82620002fa565b84845462000268565b825550505050565b600090565b6200033e6200032f565b6200034b81848462000304565b505050565b5b8181101562000373576200036760008262000334565b60018101905062000351565b5050565b601f821115620003c2576200038c8162000236565b62000397846200024b565b81016020851015620003a7578190505b620003bf620003b6856200024b565b83018262000350565b50505b505050565b600082821c905092915050565b6000620003e760001984600802620003c7565b1980831691505092915050565b6000620004028383620003d4565b9150826002028217905092915050565b6200041d8262000198565b67ffffffffffffffff811115620004395762000438620001a3565b5b62000445825462000201565b6200045282828562000377565b600060209050601f8311600181146200048a576000841562000475578287015190505b620004818582620003f4565b865550620004f1565b601f1984166200049a8662000236565b60005b82811015620004c4578489015182556001820191506020850194506020810190506200049d565b86831015620004e45784890151620004e0601f891682620003d4565b8355505b6001600288020188555050505b505050505050565b6133bc80620005096000396000f3fe608060405234801561001057600080fd5b50600436106101215760003560e01c80638da5cb5b116100ad578063d699e47211610071578063d699e47214610306578063e086e5ec14610336578063e985e9c514610340578063eacabe1414610370578063f2fde38b146103a057610121565b80638da5cb5b1461026257806395d89b4114610280578063a22cb4651461029e578063b88d4fde146102ba578063c87b56dd146102d657610121565b806323b872dd116100f457806323b872dd146101c057806342842e0e146101dc5780636352211e146101f857806370a0823114610228578063715018a61461025857610121565b806301ffc9a71461012657806306fdde0314610156578063081812fc14610174578063095ea7b3146101a4575b600080fd5b610140600480360381019061013b9190611ff9565b6103bc565b60405161014d9190612041565b60405180910390f35b61015e61041d565b60405161016b91906120ec565b60405180910390f35b61018e60048036038101906101899190612144565b6104af565b60405161019b91906121b2565b60405180910390f35b6101be60048036038101906101b991906121f9565b6104f5565b005b6101da60048036038101906101d59190612239565b61060c565b005b6101f660048036038101906101f19190612239565b61066c565b005b610212600480360381019061020d9190612144565b61068c565b60405161021f91906121b2565b60405180910390f35b610242600480360381019061023d919061228c565b610712565b60405161024f91906122c8565b60405180910390f35b6102606107c9565b005b61026a6107dd565b60405161027791906121b2565b60405180910390f35b610288610807565b60405161029591906120ec565b60405180910390f35b6102b860048036038101906102b3919061230f565b610899565b005b6102d460048036038101906102cf9190612484565b6108af565b005b6102f060048036038101906102eb9190612144565b610911565b6040516102fd91906120ec565b60405180910390f35b610320600480360381019061031b919061228c565b610a23565b60405161032d91906120ec565b60405180910390f35b61033e610af4565b005b61035a60048036038101906103559190612507565b610b52565b6040516103679190612041565b60405180910390f35b61038a600480360381019061038591906125a7565b610be6565b60405161039791906122c8565b60405180910390f35b6103ba60048036038101906103b5919061228c565b610de6565b005b6000634906490660e01b7bffffffffffffffffffffffffffffffffffffffffffffffffffffffff1916827bffffffffffffffffffffffffffffffffffffffffffffffffffffffff19161480610416575061041582610e69565b5b9050919050565b60606000805461042c90612636565b80601f016020809104026020016040519081016040528092919081815260200182805461045890612636565b80156104a55780601f1061047a576101008083540402835291602001916104a5565b820191906000526020600020905b81548152906001019060200180831161048857829003601f168201915b5050505050905090565b60006104ba82610f4b565b6004600083815260200190815260200160002060009054906101000a900473ffffffffffffffffffffffffffffffffffffffff169050919050565b60006105008261068c565b90508073ffffffffffffffffffffffffffffffffffffffff168373ffffffffffffffffffffffffffffffffffffffff1603610570576040517f08c379a0000000000000000000000000000000000000000000000000000000008152600401610567906126d9565b60405180910390fd5b8073ffffffffffffffffffffffffffffffffffffffff1661058f610f96565b73ffffffffffffffffffffffffffffffffffffffff1614806105be57506105bd816105b8610f96565b610b52565b5b6105fd576040517f08c379a00000000000000000000000000000000000000000000000000000000081526004016105f49061276b565b60405180910390fd5b6106078383610f9e565b505050565b61061d610617610f96565b82611057565b61065c576040517f08c379a0000000000000000000000000000000000000000000000000000000008152600401610653906127fd565b60405180910390fd5b6106678383836110ec565b505050565b610687838383604051806020016040528060008152506108af565b505050565b600080610698836113e5565b9050600073ffffffffffffffffffffffffffffffffffffffff168173ffffffffffffffffffffffffffffffffffffffff1603610709576040517f08c379a000000000000000000000000000000000000000000000000000000000815260040161070090612869565b60405180910390fd5b80915050919050565b60008073ffffffffffffffffffffffffffffffffffffffff168273ffffffffffffffffffffffffffffffffffffffff1603610782576040517f08c379a0000000000000000000000000000000000000000000000000000000008152600401610779906128fb565b60405180910390fd5b600360008373ffffffffffffffffffffffffffffffffffffffff1673ffffffffffffffffffffffffffffffffffffffff168152602001908152602001600020549050919050565b6107d1611422565b6107db60006114a0565b565b6000600760009054906101000a900473ffffffffffffffffffffffffffffffffffffffff16905090565b60606001805461081690612636565b80601f016020809104026020016040519081016040528092919081815260200182805461084290612636565b801561088f5780601f106108645761010080835404028352916020019161088f565b820191906000526020600020905b81548152906001019060200180831161087257829003601f168201915b5050505050905090565b6108ab6108a4610f96565b8383611566565b5050565b6108c06108ba610f96565b83611057565b6108ff576040517f08c379a00000000000000000000000000000000000000000000000000000000081526004016108f6906127fd565b60405180910390fd5b61090b848484846116d2565b50505050565b606061091c82610f4b565b600060066000848152602001908152602001600020805461093c90612636565b80601f016020809104026020016040519081016040528092919081815260200182805461096890612636565b80156109b55780601f1061098a576101008083540402835291602001916109b5565b820191906000526020600020905b81548152906001019060200180831161099857829003601f168201915b5050505050905060006109c661172e565b905060008151036109db578192505050610a1e565b600082511115610a105780826040516020016109f8929190612957565b60405160208183030381529060405292505050610a1e565b610a1984611745565b925050505b919050565b6060600960008373ffffffffffffffffffffffffffffffffffffffff1673ffffffffffffffffffffffffffffffffffffffff1681526020019081526020016000208054610a6f90612636565b80601f0160208091040260200160405190810160405280929190818152602001828054610a9b90612636565b8015610ae85780601f10610abd57610100808354040283529160200191610ae8565b820191906000526020600020905b815481529060010190602001808311610acb57829003601f168201915b50505050509050919050565b610afc611422565b6000479050610b096107dd565b73ffffffffffffffffffffffffffffffffffffffff166108fc829081150290604051600060405180830381858888f19350505050158015610b4e573d6000803e3d6000fd5b5050565b6000600560008473ffffffffffffffffffffffffffffffffffffffff1673ffffffffffffffffffffffffffffffffffffffff16815260200190815260200160002060008373ffffffffffffffffffffffffffffffffffffffff1673ffffffffffffffffffffffffffffffffffffffff16815260200190815260200160002060009054906101000a900460ff16905092915050565b600080600960008673ffffffffffffffffffffffffffffffffffffffff1673ffffffffffffffffffffffffffffffffffffffff1681526020019081526020016000208054610c3390612636565b905011610c75576040517f08c379a0000000000000000000000000000000000000000000000000000000008152600401610c6c906129c7565b60405180910390fd5b600a8383604051610c87929190612a0c565b908152602001604051809103902060009054906101000a900460ff1615610ce3576040517f08c379a0000000000000000000000000000000000000000000000000000000008152600401610cda90612a71565b60405180910390fd5b610ced60086117ad565b6000610cf960086117c3565b9050610d0585826117d1565b610d538185858080601f016020809104026020016040519081016040528093929190818152602001838380828437600081840152601f19601f820116905080830192505050505050506117ef565b8383600960008873ffffffffffffffffffffffffffffffffffffffff1673ffffffffffffffffffffffffffffffffffffffff1681526020019081526020016000209182610da1929190612c48565b506001600a8585604051610db6929190612a0c565b908152602001604051809103902060006101000a81548160ff021916908315150217905550809150509392505050565b610dee611422565b600073ffffffffffffffffffffffffffffffffffffffff168173ffffffffffffffffffffffffffffffffffffffff1603610e5d576040517f08c379a0000000000000000000000000000000000000000000000000000000008152600401610e5490612d8a565b60405180910390fd5b610e66816114a0565b50565b60007f80ac58cd000000000000000000000000000000000000000000000000000000007bffffffffffffffffffffffffffffffffffffffffffffffffffffffff1916827bffffffffffffffffffffffffffffffffffffffffffffffffffffffff19161480610f3457507f5b5e139f000000000000000000000000000000000000000000000000000000007bffffffffffffffffffffffffffffffffffffffffffffffffffffffff1916827bffffffffffffffffffffffffffffffffffffffffffffffffffffffff1916145b80610f445750610f4382611893565b5b9050919050565b610f54816118fd565b610f93576040517f08c379a0000000000000000000000000000000000000000000000000000000008152600401610f8a90612869565b60405180910390fd5b50565b600033905090565b816004600083815260200190815260200160002060006101000a81548173ffffffffffffffffffffffffffffffffffffffff021916908373ffffffffffffffffffffffffffffffffffffffff160217905550808273ffffffffffffffffffffffffffffffffffffffff166110118361068c565b73ffffffffffffffffffffffffffffffffffffffff167f8c5be1e5ebec7d5bd14f71427d1e84f3dd0314c0f7b2291e5b200ac8c7c3b92560405160405180910390a45050565b6000806110638361068c565b90508073ffffffffffffffffffffffffffffffffffffffff168473ffffffffffffffffffffffffffffffffffffffff1614806110a557506110a48185610b52565b5b806110e357508373ffffffffffffffffffffffffffffffffffffffff166110cb846104af565b73ffffffffffffffffffffffffffffffffffffffff16145b91505092915050565b8273ffffffffffffffffffffffffffffffffffffffff1661110c8261068c565b73ffffffffffffffffffffffffffffffffffffffff1614611162576040517f08c379a000000000000000000000000000000000000000000000000000000000815260040161115990612e1c565b60405180910390fd5b600073ffffffffffffffffffffffffffffffffffffffff168273ffffffffffffffffffffffffffffffffffffffff16036111d1576040517f08c379a00000000000000000000000000000000000000000000000000000000081526004016111c890612eae565b60405180910390fd5b6111de838383600161193e565b8273ffffffffffffffffffffffffffffffffffffffff166111fe8261068c565b73ffffffffffffffffffffffffffffffffffffffff1614611254576040517f08c379a000000000000000000000000000000000000000000000000000000000815260040161124b90612e1c565b60405180910390fd5b6004600082815260200190815260200160002060006101000a81549073ffffffffffffffffffffffffffffffffffffffff02191690556001600360008573ffffffffffffffffffffffffffffffffffffffff1673ffffffffffffffffffffffffffffffffffffffff168152602001908152602001600020600082825403925050819055506001600360008473ffffffffffffffffffffffffffffffffffffffff1673ffffffffffffffffffffffffffffffffffffffff16815260200190815260200160002060008282540192505081905550816002600083815260200190815260200160002060006101000a81548173ffffffffffffffffffffffffffffffffffffffff021916908373ffffffffffffffffffffffffffffffffffffffff160217905550808273ffffffffffffffffffffffffffffffffffffffff168473ffffffffffffffffffffffffffffffffffffffff167fddf252ad1be2c89b69c2b068fc378daa952ba7f163c4a11628f55a4df523b3ef60405160405180910390a46113e08383836001611944565b505050565b60006002600083815260200190815260200160002060009054906101000a900473ffffffffffffffffffffffffffffffffffffffff169050919050565b61142a610f96565b73ffffffffffffffffffffffffffffffffffffffff166114486107dd565b73ffffffffffffffffffffffffffffffffffffffff161461149e576040517f08c379a000000000000000000000000000000000000000000000000000000000815260040161149590612f1a565b60405180910390fd5b565b6000600760009054906101000a900473ffffffffffffffffffffffffffffffffffffffff16905081600760006101000a81548173ffffffffffffffffffffffffffffffffffffffff021916908373ffffffffffffffffffffffffffffffffffffffff1602179055508173ffffffffffffffffffffffffffffffffffffffff168173ffffffffffffffffffffffffffffffffffffffff167f8be0079c531659141344cd1fd0a4f28419497f9722a3daafe3b4186f6b6457e060405160405180910390a35050565b8173ffffffffffffffffffffffffffffffffffffffff168373ffffffffffffffffffffffffffffffffffffffff16036115d4576040517f08c379a00000000000000000000000000000000000000000000000000000000081526004016115cb90612f86565b60405180910390fd5b80600560008573ffffffffffffffffffffffffffffffffffffffff1673ffffffffffffffffffffffffffffffffffffffff16815260200190815260200160002060008473ffffffffffffffffffffffffffffffffffffffff1673ffffffffffffffffffffffffffffffffffffffff16815260200190815260200160002060006101000a81548160ff0219169083151502179055508173ffffffffffffffffffffffffffffffffffffffff168373ffffffffffffffffffffffffffffffffffffffff167f17307eab39ab6107e8899845ad3d59bd9653f200f220920489ca2b5937696c31836040516116c59190612041565b60405180910390a3505050565b6116dd8484846110ec565b6116e98484848461194a565b611728576040517f08c379a000000000000000000000000000000000000000000000000000000000815260040161171f90613018565b60405180910390fd5b50505050565b606060405180602001604052806000815250905090565b606061175082610f4b565b600061175a61172e565b9050600081511161177a57604051806020016040528060008152506117a5565b8061178484611ad1565b604051602001611795929190612957565b6040516020818303038152906040525b915050919050565b6001816000016000828254019250508190555050565b600081600001549050919050565b6117eb828260405180602001604052806000815250611b9f565b5050565b6117f8826118fd565b611837576040517f08c379a000000000000000000000000000000000000000000000000000000000815260040161182e906130aa565b60405180910390fd5b8060066000848152602001908152602001600020908161185791906130ca565b507ff8e1a15aba9398e019f0b49df1a4fde98ee17ae345cb5f6b5e2c27f5033e8ce78260405161188791906122c8565b60405180910390a15050565b60007f01ffc9a7000000000000000000000000000000000000000000000000000000007bffffffffffffffffffffffffffffffffffffffffffffffffffffffff1916827bffffffffffffffffffffffffffffffffffffffffffffffffffffffff1916149050919050565b60008073ffffffffffffffffffffffffffffffffffffffff1661191f836113e5565b73ffffffffffffffffffffffffffffffffffffffff1614159050919050565b50505050565b50505050565b600061196b8473ffffffffffffffffffffffffffffffffffffffff16611bfa565b15611ac4578373ffffffffffffffffffffffffffffffffffffffff1663150b7a02611994610f96565b8786866040518563ffffffff1660e01b81526004016119b694939291906131f1565b6020604051808303816000875af19250505080156119f257506040513d601f19601f820116820180604052508101906119ef9190613252565b60015b611a74573d8060008114611a22576040519150601f19603f3d011682016040523d82523d6000602084013e611a27565b606091505b506000815103611a6c576040517f08c379a0000000000000000000000000000000000000000000000000000000008152600401611a6390613018565b60405180910390fd5b805181602001fd5b63150b7a0260e01b7bffffffffffffffffffffffffffffffffffffffffffffffffffffffff1916817bffffffffffffffffffffffffffffffffffffffffffffffffffffffff191614915050611ac9565b600190505b949350505050565b606060006001611ae084611c1d565b01905060008167ffffffffffffffff811115611aff57611afe612359565b5b6040519080825280601f01601f191660200182016040528015611b315781602001600182028036833780820191505090505b509050600082602001820190505b600115611b94578080600190039150507f3031323334353637383961626364656600000000000000000000000000000000600a86061a8153600a8581611b8857611b8761327f565b5b04945060008503611b3f575b819350505050919050565b611ba98383611d70565b611bb6600084848461194a565b611bf5576040517f08c379a0000000000000000000000000000000000000000000000000000000008152600401611bec90613018565b60405180910390fd5b505050565b6000808273ffffffffffffffffffffffffffffffffffffffff163b119050919050565b600080600090507a184f03e93ff9f4daa797ed6e38ed64bf6a1f0100000000000000008310611c7b577a184f03e93ff9f4daa797ed6e38ed64bf6a1f0100000000000000008381611c7157611c7061327f565b5b0492506040810190505b6d04ee2d6d415b85acef81000000008310611cb8576d04ee2d6d415b85acef81000000008381611cae57611cad61327f565b5b0492506020810190505b662386f26fc100008310611ce757662386f26fc100008381611cdd57611cdc61327f565b5b0492506010810190505b6305f5e1008310611d10576305f5e1008381611d0657611d0561327f565b5b0492506008810190505b6127108310611d35576127108381611d2b57611d2a61327f565b5b0492506004810190505b60648310611d585760648381611d4e57611d4d61327f565b5b0492506002810190505b600a8310611d67576001810190505b80915050919050565b600073ffffffffffffffffffffffffffffffffffffffff168273ffffffffffffffffffffffffffffffffffffffff1603611ddf576040517f08c379a0000000000000000000000000000000000000000000000000000000008152600401611dd6906132fa565b60405180910390fd5b611de8816118fd565b15611e28576040517f08c379a0000000000000000000000000000000000000000000000000000000008152600401611e1f90613366565b60405180910390fd5b611e3660008383600161193e565b611e3f816118fd565b15611e7f576040517f08c379a0000000000000000000000000000000000000000000000000000000008152600401611e7690613366565b60405180910390fd5b6001600360008473ffffffffffffffffffffffffffffffffffffffff1673ffffffffffffffffffffffffffffffffffffffff16815260200190815260200160002060008282540192505081905550816002600083815260200190815260200160002060006101000a81548173ffffffffffffffffffffffffffffffffffffffff021916908373ffffffffffffffffffffffffffffffffffffffff160217905550808273ffffffffffffffffffffffffffffffffffffffff16600073ffffffffffffffffffffffffffffffffffffffff167fddf252ad1be2c89b69c2b068fc378daa952ba7f163c4a11628f55a4df523b3ef60405160405180910390a4611f89600083836001611944565b5050565b6000604051905090565b600080fd5b600080fd5b60007fffffffff0000000000000000000000000000000000000000000000000000000082169050919050565b611fd681611fa1565b8114611fe157600080fd5b50565b600081359050611ff381611fcd565b92915050565b60006020828403121561200f5761200e611f97565b5b600061201d84828501611fe4565b91505092915050565b60008115159050919050565b61203b81612026565b82525050565b60006020820190506120566000830184612032565b92915050565b600081519050919050565b600082825260208201905092915050565b60005b8381101561209657808201518184015260208101905061207b565b60008484015250505050565b6000601f19601f8301169050919050565b60006120be8261205c565b6120c88185612067565b93506120d8818560208601612078565b6120e1816120a2565b840191505092915050565b6000602082019050818103600083015261210681846120b3565b905092915050565b6000819050919050565b6121218161210e565b811461212c57600080fd5b50565b60008135905061213e81612118565b92915050565b60006020828403121561215a57612159611f97565b5b60006121688482850161212f565b91505092915050565b600073ffffffffffffffffffffffffffffffffffffffff82169050919050565b600061219c82612171565b9050919050565b6121ac81612191565b82525050565b60006020820190506121c760008301846121a3565b92915050565b6121d681612191565b81146121e157600080fd5b50565b6000813590506121f3816121cd565b92915050565b600080604083850312156122105761220f611f97565b5b600061221e858286016121e4565b925050602061222f8582860161212f565b9150509250929050565b60008060006060848603121561225257612251611f97565b5b6000612260868287016121e4565b9350506020612271868287016121e4565b92505060406122828682870161212f565b9150509250925092565b6000602082840312156122a2576122a1611f97565b5b60006122b0848285016121e4565b91505092915050565b6122c28161210e565b82525050565b60006020820190506122dd60008301846122b9565b92915050565b6122ec81612026565b81146122f757600080fd5b50565b600081359050612309816122e3565b92915050565b6000806040838503121561232657612325611f97565b5b6000612334858286016121e4565b9250506020612345858286016122fa565b9150509250929050565b600080fd5b600080fd5b7f4e487b7100000000000000000000000000000000000000000000000000000000600052604160045260246000fd5b612391826120a2565b810181811067ffffffffffffffff821117156123b0576123af612359565b5b80604052505050565b60006123c3611f8d565b90506123cf8282612388565b919050565b600067ffffffffffffffff8211156123ef576123ee612359565b5b6123f8826120a2565b9050602081019050919050565b82818337600083830152505050565b6000612427612422846123d4565b6123b9565b90508281526020810184848401111561244357612442612354565b5b61244e848285612405565b509392505050565b600082601f83011261246b5761246a61234f565b5b813561247b848260208601612414565b91505092915050565b6000806000806080858703121561249e5761249d611f97565b5b60006124ac878288016121e4565b94505060206124bd878288016121e4565b93505060406124ce8782880161212f565b925050606085013567ffffffffffffffff8111156124ef576124ee611f9c565b5b6124fb87828801612456565b91505092959194509250565b6000806040838503121561251e5761251d611f97565b5b600061252c858286016121e4565b925050602061253d858286016121e4565b9150509250929050565b600080fd5b600080fd5b60008083601f8401126125675761256661234f565b5b8235905067ffffffffffffffff81111561258457612583612547565b5b6020830191508360018202830111156125a05761259f61254c565b5b9250929050565b6000806000604084860312156125c0576125bf611f97565b5b60006125ce868287016121e4565b935050602084013567ffffffffffffffff8111156125ef576125ee611f9c565b5b6125fb86828701612551565b92509250509250925092565b7f4e487b7100000000000000000000000000000000000000000000000000000000600052602260045260246000fd5b6000600282049050600182168061264e57607f821691505b60208210810361266157612660612607565b5b50919050565b7f4552433732313a20617070726f76616c20746f2063757272656e74206f776e6560008201527f7200000000000000000000000000000000000000000000000000000000000000602082015250565b60006126c3602183612067565b91506126ce82612667565b604082019050919050565b600060208201905081810360008301526126f2816126b6565b9050919050565b7f4552433732313a20617070726f76652063616c6c6572206973206e6f7420746f60008201527f6b656e206f776e6572206f7220617070726f76656420666f7220616c6c000000602082015250565b6000612755603d83612067565b9150612760826126f9565b604082019050919050565b6000602082019050818103600083015261278481612748565b9050919050565b7f4552433732313a2063616c6c6572206973206e6f7420746f6b656e206f776e6560008201527f72206f7220617070726f76656400000000000000000000000000000000000000602082015250565b60006127e7602d83612067565b91506127f28261278b565b604082019050919050565b60006020820190508181036000830152612816816127da565b9050919050565b7f4552433732313a20696e76616c696420746f6b656e2049440000000000000000600082015250565b6000612853601883612067565b915061285e8261281d565b602082019050919050565b6000602082019050818103600083015261288281612846565b9050919050565b7f4552433732313a2061646472657373207a65726f206973206e6f74206120766160008201527f6c6964206f776e65720000000000000000000000000000000000000000000000602082015250565b60006128e5602983612067565b91506128f082612889565b604082019050919050565b60006020820190508181036000830152612914816128d8565b9050919050565b600081905092915050565b60006129318261205c565b61293b818561291b565b935061294b818560208601612078565b80840191505092915050565b60006129638285612926565b915061296f8284612926565b91508190509392505050565b7f416e20616464726573732063616e206f6e6c79206d696e74206f6e6365000000600082015250565b60006129b1601d83612067565b91506129bc8261297b565b602082019050919050565b600060208201905081810360008301526129e0816129a4565b9050919050565b60006129f3838561291b565b9350612a00838584612405565b82840190509392505050565b6000612a198284866129e7565b91508190509392505050565b7f546f6b656e20616c726561647920657869737473000000000000000000000000600082015250565b6000612a5b601483612067565b9150612a6682612a25565b602082019050919050565b60006020820190508181036000830152612a8a81612a4e565b9050919050565b600082905092915050565b60008190508160005260206000209050919050565b60006020601f8301049050919050565b600082821b905092915050565b600060088302612afe7fffffffffffffffffffffffffffffffffffffffffffffffffffffffffffffffff82612ac1565b612b088683612ac1565b95508019841693508086168417925050509392505050565b6000819050919050565b6000612b45612b40612b3b8461210e565b612b20565b61210e565b9050919050565b6000819050919050565b612b5f83612b2a565b612b73612b6b82612b4c565b848454612ace565b825550505050565b600090565b612b88612b7b565b612b93818484612b56565b505050565b5b81811015612bb757612bac600082612b80565b600181019050612b99565b5050565b601f821115612bfc57612bcd81612a9c565b612bd684612ab1565b81016020851015612be5578190505b612bf9612bf185612ab1565b830182612b98565b50505b505050565b600082821c905092915050565b6000612c1f60001984600802612c01565b1980831691505092915050565b6000612c388383612c0e565b9150826002028217905092915050565b612c528383612a91565b67ffffffffffffffff811115612c6b57612c6a612359565b5b612c758254612636565b612c80828285612bbb565b6000601f831160018114612caf5760008415612c9d578287013590505b612ca78582612c2c565b865550612d0f565b601f198416612cbd86612a9c565b60005b82811015612ce557848901358255600182019150602085019450602081019050612cc0565b86831015612d025784890135612cfe601f891682612c0e565b8355505b6001600288020188555050505b50505050505050565b7f4f776e61626c653a206e6577206f776e657220697320746865207a65726f206160008201527f6464726573730000000000000000000000000000000000000000000000000000602082015250565b6000612d74602683612067565b9150612d7f82612d18565b604082019050919050565b60006020820190508181036000830152612da381612d67565b9050919050565b7f4552433732313a207472616e736665722066726f6d20696e636f72726563742060008201527f6f776e6572000000000000000000000000000000000000000000000000000000602082015250565b6000612e06602583612067565b9150612e1182612daa565b604082019050919050565b60006020820190508181036000830152612e3581612df9565b9050919050565b7f4552433732313a207472616e7366657220746f20746865207a65726f2061646460008201527f7265737300000000000000000000000000000000000000000000000000000000602082015250565b6000612e98602483612067565b9150612ea382612e3c565b604082019050919050565b60006020820190508181036000830152612ec781612e8b565b9050919050565b7f4f776e61626c653a2063616c6c6572206973206e6f7420746865206f776e6572600082015250565b6000612f04602083612067565b9150612f0f82612ece565b602082019050919050565b60006020820190508181036000830152612f3381612ef7565b9050919050565b7f4552433732313a20617070726f766520746f2063616c6c657200000000000000600082015250565b6000612f70601983612067565b9150612f7b82612f3a565b602082019050919050565b60006020820190508181036000830152612f9f81612f63565b9050919050565b7f4552433732313a207472616e7366657220746f206e6f6e20455243373231526560008201527f63656976657220696d706c656d656e7465720000000000000000000000000000602082015250565b6000613002603283612067565b915061300d82612fa6565b604082019050919050565b6000602082019050818103600083015261303181612ff5565b9050919050565b7f45524337323155524953746f726167653a2055524920736574206f66206e6f6e60008201527f6578697374656e7420746f6b656e000000000000000000000000000000000000602082015250565b6000613094602e83612067565b915061309f82613038565b604082019050919050565b600060208201905081810360008301526130c381613087565b9050919050565b6130d38261205c565b67ffffffffffffffff8111156130ec576130eb612359565b5b6130f68254612636565b613101828285612bbb565b600060209050601f8311600181146131345760008415613122578287015190505b61312c8582612c2c565b865550613194565b601f19841661314286612a9c565b60005b8281101561316a57848901518255600182019150602085019450602081019050613145565b868310156131875784890151613183601f891682612c0e565b8355505b6001600288020188555050505b505050505050565b600081519050919050565b600082825260208201905092915050565b60006131c38261319c565b6131cd81856131a7565b93506131dd818560208601612078565b6131e6816120a2565b840191505092915050565b600060808201905061320660008301876121a3565b61321360208301866121a3565b61322060408301856122b9565b818103606083015261323281846131b8565b905095945050505050565b60008151905061324c81611fcd565b92915050565b60006020828403121561326857613267611f97565b5b60006132768482850161323d565b91505092915050565b7f4e487b7100000000000000000000000000000000000000000000000000000000600052601260045260246000fd5b7f4552433732313a206d696e7420746f20746865207a65726f2061646472657373600082015250565b60006132e4602083612067565b91506132ef826132ae565b602082019050919050565b60006020820190508181036000830152613313816132d7565b9050919050565b7f4552433732313a20746f6b656e20616c7265616479206d696e74656400000000600082015250565b6000613350601c83612067565b915061335b8261331a565b602082019050919050565b6000602082019050818103600083015261337f81613343565b905091905056fea2646970667358221220ee46d0113acbe59934bd4f0c0d8778aef0c02fe07c3ffe8581f644d508ff179e64736f6c63430008130033",
  "immutableReferences": {},
  "source": "// SPDX-License-Identifier: MIT\npragma solidity ^0.8.17;\n\nimport \"@openzeppelin/contracts/token/ERC721/extensions/ERC721URIStorage.sol\";\nimport \"@openzeppelin/contracts/utils/Counters.sol\";\nimport \"@openzeppelin/contracts/access/Ownable.sol\";\n\ncontract MyNFT is ERC721URIStorage, Ownable {\n  using Counters for Counters.Counter;\n  Counters.Counter private _tokenIds;\n\n  // Mapping to track the NFTs minted by each user\n  mapping(address => string) private userMintedTokens;\n  // Mapping to check if a token has already been minted\n  mapping(string => bool) private tokenExists;\n\n  constructor() ERC721(\"MyNFT\", \"NFT\") {}\n\n  function mintNFT(address recipient, string calldata tokenURI) external returns (uint) {\n    require(bytes(userMintedTokens[recipient]).length > 0, \"An address can only mint once\");\n    require(!tokenExists[tokenURI], \"Token already exists\");\n\n    _tokenIds.increment();\n\n    uint newItemId = _tokenIds.current();\n    _safeMint(recipient, newItemId);\n    _setTokenURI(newItemId, tokenURI);\n\n    userMintedTokens[recipient] = tokenURI;\n    tokenExists[tokenURI] = true;\n\n    return newItemId;\n  }\n\n  // This function will allow the owner to withdraw all the remaining ETH.\n  function withdrawETH() public onlyOwner {\n    uint balance = address(this).balance;\n    payable(owner()).transfer(balance);\n  }\n\n  function getMintedToken(address user) external view returns (string memory) {\n    return userMintedTokens[user];\n  }\n}\n",
  "sourcePath": "/home/alvinvoo/my_projects/nft-portal/contracts/MyNFT.sol",
  "compiler": {
    "name": "solc",
    "version": "0.8.19+commit.7dd6d404.Emscripten.clang"
  },
  "schemaVersion": "3.4.14",
  "updatedAt": "2023-07-03T15:06:39.291Z",
  "networkType": "ethereum",
  "devdoc": {
    "events": {
      "Approval(address,address,uint256)": {
        "details": "Emitted when `owner` enables `approved` to manage the `tokenId` token."
      },
      "ApprovalForAll(address,address,bool)": {
        "details": "Emitted when `owner` enables or disables (`approved`) `operator` to manage all of its assets."
      },
      "BatchMetadataUpdate(uint256,uint256)": {
        "details": "This event emits when the metadata of a range of tokens is changed. So that the third-party platforms such as NFT market could timely update the images and related attributes of the NFTs."
      },
      "MetadataUpdate(uint256)": {
        "details": "This event emits when the metadata of a token is changed. So that the third-party platforms such as NFT market could timely update the images and related attributes of the NFT."
      },
      "Transfer(address,address,uint256)": {
        "details": "Emitted when `tokenId` token is transferred from `from` to `to`."
      }
    },
    "kind": "dev",
    "methods": {
      "approve(address,uint256)": {
        "details": "See {IERC721-approve}."
      },
      "balanceOf(address)": {
        "details": "See {IERC721-balanceOf}."
      },
      "getApproved(uint256)": {
        "details": "See {IERC721-getApproved}."
      },
      "isApprovedForAll(address,address)": {
        "details": "See {IERC721-isApprovedForAll}."
      },
      "name()": {
        "details": "See {IERC721Metadata-name}."
      },
      "owner()": {
        "details": "Returns the address of the current owner."
      },
      "ownerOf(uint256)": {
        "details": "See {IERC721-ownerOf}."
      },
      "renounceOwnership()": {
        "details": "Leaves the contract without owner. It will not be possible to call `onlyOwner` functions. Can only be called by the current owner. NOTE: Renouncing ownership will leave the contract without an owner, thereby disabling any functionality that is only available to the owner."
      },
      "safeTransferFrom(address,address,uint256)": {
        "details": "See {IERC721-safeTransferFrom}."
      },
      "safeTransferFrom(address,address,uint256,bytes)": {
        "details": "See {IERC721-safeTransferFrom}."
      },
      "setApprovalForAll(address,bool)": {
        "details": "See {IERC721-setApprovalForAll}."
      },
      "supportsInterface(bytes4)": {
        "details": "See {IERC165-supportsInterface}"
      },
      "symbol()": {
        "details": "See {IERC721Metadata-symbol}."
      },
      "tokenURI(uint256)": {
        "details": "See {IERC721Metadata-tokenURI}."
      },
      "transferFrom(address,address,uint256)": {
        "details": "See {IERC721-transferFrom}."
      },
      "transferOwnership(address)": {
        "details": "Transfers ownership of the contract to a new account (`newOwner`). Can only be called by the current owner."
      }
    },
    "version": 1
  },
  "userdoc": {
    "kind": "user",
    "methods": {},
    "version": 1
  }
}